{
    "contractName": "SuperHero",
    "abi": [
        {
            "inputs": [
                {
                    "internalType": "string",
                    "name": "name",
                    "type": "string"
                },
                {
                    "internalType": "string",
                    "name": "symbol",
                    "type": "string"
                },
                {
                    "internalType": "address",
                    "name": "_testToken",
                    "type": "address"
                }
            ],
            "stateMutability": "nonpayable",
            "type": "constructor"
        },
        {
            "anonymous": false,
            "inputs": [
                {
                    "indexed": true,
                    "internalType": "address",
                    "name": "owner",
                    "type": "address"
                },
                {
                    "indexed": true,
                    "internalType": "address",
                    "name": "approved",
                    "type": "address"
                },
                {
                    "indexed": true,
                    "internalType": "uint256",
                    "name": "tokenId",
                    "type": "uint256"
                }
            ],
            "name": "Approval",
            "type": "event"
        },
        {
            "anonymous": false,
            "inputs": [
                {
                    "indexed": true,
                    "internalType": "address",
                    "name": "owner",
                    "type": "address"
                },
                {
                    "indexed": true,
                    "internalType": "address",
                    "name": "operator",
                    "type": "address"
                },
                {
                    "indexed": false,
                    "internalType": "bool",
                    "name": "approved",
                    "type": "bool"
                }
            ],
            "name": "ApprovalForAll",
            "type": "event"
        },
        {
            "anonymous": false,
            "inputs": [
                {
                    "indexed": true,
                    "internalType": "address",
                    "name": "previousOwner",
                    "type": "address"
                },
                {
                    "indexed": true,
                    "internalType": "address",
                    "name": "newOwner",
                    "type": "address"
                }
            ],
            "name": "OwnershipTransferred",
            "type": "event"
        },
        {
            "anonymous": false,
            "inputs": [
                {
                    "indexed": false,
                    "internalType": "address",
                    "name": "account",
                    "type": "address"
                }
            ],
            "name": "Paused",
            "type": "event"
        },
        {
            "anonymous": false,
            "inputs": [
                {
                    "indexed": true,
                    "internalType": "address",
                    "name": "from",
                    "type": "address"
                },
                {
                    "indexed": true,
                    "internalType": "address",
                    "name": "to",
                    "type": "address"
                },
                {
                    "indexed": true,
                    "internalType": "uint256",
                    "name": "tokenId",
                    "type": "uint256"
                }
            ],
            "name": "Transfer",
            "type": "event"
        },
        {
            "anonymous": false,
            "inputs": [
                {
                    "indexed": false,
                    "internalType": "address",
                    "name": "account",
                    "type": "address"
                }
            ],
            "name": "Unpaused",
            "type": "event"
        },
        {
            "inputs": [
                {
                    "internalType": "address",
                    "name": "to",
                    "type": "address"
                },
                {
                    "internalType": "uint256",
                    "name": "tokenId",
                    "type": "uint256"
                }
            ],
            "name": "approve",
            "outputs": [],
            "stateMutability": "nonpayable",
            "type": "function"
        },
        {
            "inputs": [
                {
                    "internalType": "address",
                    "name": "owner",
                    "type": "address"
                }
            ],
            "name": "balanceOf",
            "outputs": [
                {
                    "internalType": "uint256",
                    "name": "",
                    "type": "uint256"
                }
            ],
            "stateMutability": "view",
            "type": "function"
        },
        {
            "inputs": [
                {
                    "internalType": "uint256",
                    "name": "tokenId",
                    "type": "uint256"
                }
            ],
            "name": "getApproved",
            "outputs": [
                {
                    "internalType": "address",
                    "name": "",
                    "type": "address"
                }
            ],
            "stateMutability": "view",
            "type": "function"
        },
        {
            "inputs": [
                {
                    "internalType": "uint256",
                    "name": "",
                    "type": "uint256"
                }
            ],
            "name": "heroes",
            "outputs": [
                {
                    "internalType": "string",
                    "name": "name",
                    "type": "string"
                },
                {
                    "internalType": "uint256",
                    "name": "age",
                    "type": "uint256"
                },
                {
                    "internalType": "enum SuperHero.Level",
                    "name": "level",
                    "type": "uint8"
                }
            ],
            "stateMutability": "view",
            "type": "function"
        },
        {
            "inputs": [
                {
                    "internalType": "address",
                    "name": "owner",
                    "type": "address"
                },
                {
                    "internalType": "address",
                    "name": "operator",
                    "type": "address"
                }
            ],
            "name": "isApprovedForAll",
            "outputs": [
                {
                    "internalType": "bool",
                    "name": "",
                    "type": "bool"
                }
            ],
            "stateMutability": "view",
            "type": "function"
        },
        {
            "inputs": [
                {
                    "internalType": "string",
                    "name": "name",
                    "type": "string"
                },
                {
                    "internalType": "uint256",
                    "name": "age",
                    "type": "uint256"
                }
            ],
            "name": "mint",
            "outputs": [],
            "stateMutability": "nonpayable",
            "type": "function"
        },
        {
            "inputs": [],
            "name": "name",
            "outputs": [
                {
                    "internalType": "string",
                    "name": "",
                    "type": "string"
                }
            ],
            "stateMutability": "view",
            "type": "function"
        },
        {
            "inputs": [],
            "name": "owner",
            "outputs": [
                {
                    "internalType": "address",
                    "name": "",
                    "type": "address"
                }
            ],
            "stateMutability": "view",
            "type": "function"
        },
        {
            "inputs": [
                {
                    "internalType": "uint256",
                    "name": "tokenId",
                    "type": "uint256"
                }
            ],
            "name": "ownerOf",
            "outputs": [
                {
                    "internalType": "address",
                    "name": "",
                    "type": "address"
                }
            ],
            "stateMutability": "view",
            "type": "function"
        },
        {
            "inputs": [],
            "name": "pause",
            "outputs": [],
            "stateMutability": "nonpayable",
            "type": "function"
        },
        {
            "inputs": [],
            "name": "paused",
            "outputs": [
                {
                    "internalType": "bool",
                    "name": "",
                    "type": "bool"
                }
            ],
            "stateMutability": "view",
            "type": "function"
        },
        {
            "inputs": [],
            "name": "renounceOwnership",
            "outputs": [],
            "stateMutability": "nonpayable",
            "type": "function"
        },
        {
            "inputs": [
                {
                    "internalType": "address",
                    "name": "from",
                    "type": "address"
                },
                {
                    "internalType": "address",
                    "name": "to",
                    "type": "address"
                },
                {
                    "internalType": "uint256",
                    "name": "tokenId",
                    "type": "uint256"
                }
            ],
            "name": "safeTransferFrom",
            "outputs": [],
            "stateMutability": "nonpayable",
            "type": "function"
        },
        {
            "inputs": [
                {
                    "internalType": "address",
                    "name": "from",
                    "type": "address"
                },
                {
                    "internalType": "address",
                    "name": "to",
                    "type": "address"
                },
                {
                    "internalType": "uint256",
                    "name": "tokenId",
                    "type": "uint256"
                },
                {
                    "internalType": "bytes",
                    "name": "_data",
                    "type": "bytes"
                }
            ],
            "name": "safeTransferFrom",
            "outputs": [],
            "stateMutability": "nonpayable",
            "type": "function"
        },
        {
            "inputs": [
                {
                    "internalType": "address",
                    "name": "operator",
                    "type": "address"
                },
                {
                    "internalType": "bool",
                    "name": "approved",
                    "type": "bool"
                }
            ],
            "name": "setApprovalForAll",
            "outputs": [],
            "stateMutability": "nonpayable",
            "type": "function"
        },
        {
            "inputs": [
                {
                    "internalType": "address",
                    "name": "_token",
                    "type": "address"
                }
            ],
            "name": "setTestToken",
            "outputs": [],
            "stateMutability": "nonpayable",
            "type": "function"
        },
        {
            "inputs": [
                {
                    "internalType": "bytes4",
                    "name": "interfaceId",
                    "type": "bytes4"
                }
            ],
            "name": "supportsInterface",
            "outputs": [
                {
                    "internalType": "bool",
                    "name": "",
                    "type": "bool"
                }
            ],
            "stateMutability": "view",
            "type": "function"
        },
        {
            "inputs": [],
            "name": "symbol",
            "outputs": [
                {
                    "internalType": "string",
                    "name": "",
                    "type": "string"
                }
            ],
            "stateMutability": "view",
            "type": "function"
        },
        {
            "inputs": [],
            "name": "testToken",
            "outputs": [
                {
                    "internalType": "contract ITestToken",
                    "name": "",
                    "type": "address"
                }
            ],
            "stateMutability": "view",
            "type": "function"
        },
        {
            "inputs": [
                {
                    "internalType": "uint256",
                    "name": "tokenId",
                    "type": "uint256"
                }
            ],
            "name": "tokenURI",
            "outputs": [
                {
                    "internalType": "string",
                    "name": "",
                    "type": "string"
                }
            ],
            "stateMutability": "view",
            "type": "function"
        },
        {
            "inputs": [
                {
                    "internalType": "address",
                    "name": "from",
                    "type": "address"
                },
                {
                    "internalType": "address",
                    "name": "to",
                    "type": "address"
                },
                {
                    "internalType": "uint256",
                    "name": "tokenId",
                    "type": "uint256"
                }
            ],
            "name": "transferFrom",
            "outputs": [],
            "stateMutability": "nonpayable",
            "type": "function"
        },
        {
            "inputs": [
                {
                    "internalType": "address",
                    "name": "newOwner",
                    "type": "address"
                }
            ],
            "name": "transferOwnership",
            "outputs": [],
            "stateMutability": "nonpayable",
            "type": "function"
        },
        {
            "inputs": [],
            "name": "unpause",
            "outputs": [],
            "stateMutability": "nonpayable",
            "type": "function"
        }
    ],
    "bytecode": "60806040523480156200001157600080fd5b506040516200215538038062002155833981016040819052620000349162000385565b8251839083906200004d90600090602085019062000212565b5080516200006390600190602084019062000212565b50506006805460ff19169055506200007b33620001b8565b60016007556001600160a01b038116620000e65760405162461bcd60e51b815260206004820152602260248201527f53757065724865726f3a205f74657374546f6b656e2061646472657373207a65604482015261726f60f01b606482015260840160405180910390fd5b600980546001600160a01b0319166001600160a01b0383161790556040805160808101825260006060820181815282526020808301829052928201819052600880546001810182559152815180519293849360039093027ff3f7a9fe364faab93b216da50a3214154f22a0a2b415b23a84c8169e8b636ee301926200016f928492019062000212565b506020820151816001015560408201518160020160006101000a81548160ff02191690836002811115620001a757620001a762000412565b021790555050505050505062000465565b600680546001600160a01b03838116610100818102610100600160a81b031985161790945560405193909204169182907f8be0079c531659141344cd1fd0a4f28419497f9722a3daafe3b4186f6b6457e090600090a35050565b828054620002209062000428565b90600052602060002090601f0160209004810192826200024457600085556200028f565b82601f106200025f57805160ff19168380011785556200028f565b828001600101855582156200028f579182015b828111156200028f57825182559160200191906001019062000272565b506200029d929150620002a1565b5090565b5b808211156200029d5760008155600101620002a2565b634e487b7160e01b600052604160045260246000fd5b600082601f830112620002e057600080fd5b81516001600160401b0380821115620002fd57620002fd620002b8565b604051601f8301601f19908116603f01168101908282118183101715620003285762000328620002b8565b816040528381526020925086838588010111156200034557600080fd5b600091505b838210156200036957858201830151818301840152908201906200034a565b838211156200037b5760008385830101525b9695505050505050565b6000806000606084860312156200039b57600080fd5b83516001600160401b0380821115620003b357600080fd5b620003c187838801620002ce565b94506020860151915080821115620003d857600080fd5b50620003e786828701620002ce565b604086015190935090506001600160a01b03811681146200040757600080fd5b809150509250925092565b634e487b7160e01b600052602160045260246000fd5b600181811c908216806200043d57607f821691505b602082108114156200045f57634e487b7160e01b600052602260045260246000fd5b50919050565b611ce080620004756000396000f3fe608060405234801561001057600080fd5b506004361061014d5760003560e01c80636895179d116100c3578063a22cb4651161007c578063a22cb465146102a3578063a8d4a03b146102b6578063b88d4fde146102d8578063c87b56dd146102eb578063e985e9c5146102fe578063f2fde38b1461031157600080fd5b80636895179d1461024157806370a0823114610254578063715018a6146102755780638456cb591461027d5780638da5cb5b1461028557806395d89b411461029b57600080fd5b806323b872dd1161011557806323b872dd146101e25780633f4ba83a146101f557806342842e0e146101fd5780635a3cbc8b146102105780635c975abb146102235780636352211e1461022e57600080fd5b806301ffc9a714610152578063056b01ce1461017a57806306fdde031461018f578063081812fc146101a4578063095ea7b3146101cf575b600080fd5b6101656101603660046116ef565b610324565b60405190151581526020015b60405180910390f35b61018d610188366004611798565b610376565b005b61019761057e565b6040516101719190611849565b6101b76101b236600461185c565b610610565b6040516001600160a01b039091168152602001610171565b61018d6101dd366004611891565b6106a5565b61018d6101f03660046118bb565b6107bb565b61018d6107ec565b61018d61020b3660046118bb565b610826565b61018d61021e3660046118f7565b610841565b60065460ff16610165565b6101b761023c36600461185c565b6108f4565b6009546101b7906001600160a01b031681565b6102676102623660046118f7565b61096b565b604051908152602001610171565b61018d6109f2565b61018d610a2c565b60065461010090046001600160a01b03166101b7565b610197610a64565b61018d6102b1366004611912565b610a73565b6102c96102c436600461185c565b610b38565b60405161017193929190611964565b61018d6102e63660046119ab565b610bfe565b6101976102f936600461185c565b610c36565b61016561030c366004611a27565b610d1e565b61018d61031f3660046118f7565b610d4c565b60006001600160e01b031982166380ac58cd60e01b148061035557506001600160e01b03198216635b5e139f60e01b145b8061037057506301ffc9a760e01b6001600160e01b03198316145b92915050565b333b156103ca5760405162461bcd60e51b815260206004820152601760248201527f53757065724865726f3a206e6f7420636f6e747261637400000000000000000060448201526064015b60405180910390fd5b6002600754141561041d5760405162461bcd60e51b815260206004820152601f60248201527f5265656e7472616e637947756172643a207265656e7472616e742063616c6c0060448201526064016103c1565b60026007556040805160608101825283815260208082018490526000928201839052600880546001810182559352815180519293849360039091027ff3f7a9fe364faab93b216da50a3214154f22a0a2b415b23a84c8169e8b636ee30192610489928492910190611640565b506020820151816001015560408201518160020160006101000a81548160ff021916908360028111156104be576104be61194e565b021790555050600854600091506104d790600190611a70565b90506104e33382610ded565b6104ee600a33610f2f565b610573576009546040516340c10f1960e01b8152336004820152678ac7230489e8000060248201526001600160a01b03909116906340c10f1990604401600060405180830381600087803b15801561054557600080fd5b505af1158015610559573d6000803e3d6000fd5b5050505061057133600a610f5190919063ffffffff16565b505b505060016007555050565b60606000805461058d90611a87565b80601f01602080910402602001604051908101604052809291908181526020018280546105b990611a87565b80156106065780601f106105db57610100808354040283529160200191610606565b820191906000526020600020905b8154815290600101906020018083116105e957829003601f168201915b5050505050905090565b6000818152600260205260408120546001600160a01b03166106895760405162461bcd60e51b815260206004820152602c60248201527f4552433732313a20617070726f76656420717565727920666f72206e6f6e657860448201526b34b9ba32b73a103a37b5b2b760a11b60648201526084016103c1565b506000908152600460205260409020546001600160a01b031690565b60006106b0826108f4565b9050806001600160a01b0316836001600160a01b0316141561071e5760405162461bcd60e51b815260206004820152602160248201527f4552433732313a20617070726f76616c20746f2063757272656e74206f776e656044820152603960f91b60648201526084016103c1565b336001600160a01b038216148061073a575061073a8133610d1e565b6107ac5760405162461bcd60e51b815260206004820152603860248201527f4552433732313a20617070726f76652063616c6c6572206973206e6f74206f7760448201527f6e6572206e6f7220617070726f76656420666f7220616c6c000000000000000060648201526084016103c1565b6107b68383610f66565b505050565b6107c53382610fd4565b6107e15760405162461bcd60e51b81526004016103c190611ac2565b6107b68383836110ab565b6006546001600160a01b0361010090910416331461081c5760405162461bcd60e51b81526004016103c190611b13565b61082461124b565b565b6107b683838360405180602001604052806000815250610bfe565b6006546001600160a01b036101009091041633146108715760405162461bcd60e51b81526004016103c190611b13565b6001600160a01b0381166108d25760405162461bcd60e51b815260206004820152602260248201527f53757065724865726f3a205f74657374546f6b656e2061646472657373207a65604482015261726f60f01b60648201526084016103c1565b600980546001600160a01b0319166001600160a01b0392909216919091179055565b6000818152600260205260408120546001600160a01b0316806103705760405162461bcd60e51b815260206004820152602960248201527f4552433732313a206f776e657220717565727920666f72206e6f6e657869737460448201526832b73a103a37b5b2b760b91b60648201526084016103c1565b60006001600160a01b0382166109d65760405162461bcd60e51b815260206004820152602a60248201527f4552433732313a2062616c616e636520717565727920666f7220746865207a65604482015269726f206164647265737360b01b60648201526084016103c1565b506001600160a01b031660009081526003602052604090205490565b6006546001600160a01b03610100909104163314610a225760405162461bcd60e51b81526004016103c190611b13565b61082460006112de565b6006546001600160a01b03610100909104163314610a5c5760405162461bcd60e51b81526004016103c190611b13565b610824611338565b60606001805461058d90611a87565b6001600160a01b038216331415610acc5760405162461bcd60e51b815260206004820152601960248201527f4552433732313a20617070726f766520746f2063616c6c65720000000000000060448201526064016103c1565b3360008181526005602090815260408083206001600160a01b03871680855290835292819020805460ff191686151590811790915590519081529192917f17307eab39ab6107e8899845ad3d59bd9653f200f220920489ca2b5937696c31910160405180910390a35050565b60088181548110610b4857600080fd5b9060005260206000209060030201600091509050806000018054610b6b90611a87565b80601f0160208091040260200160405190810160405280929190818152602001828054610b9790611a87565b8015610be45780601f10610bb957610100808354040283529160200191610be4565b820191906000526020600020905b815481529060010190602001808311610bc757829003601f168201915b50505050600183015460029093015491929160ff16905083565b610c083383610fd4565b610c245760405162461bcd60e51b81526004016103c190611ac2565b610c30848484846113b3565b50505050565b6000818152600260205260409020546060906001600160a01b0316610cb55760405162461bcd60e51b815260206004820152602f60248201527f4552433732314d657461646174613a2055524920717565727920666f72206e6f60448201526e3732bc34b9ba32b73a103a37b5b2b760891b60648201526084016103c1565b6000610ccc60408051602081019091526000815290565b90506000815111610cec5760405180602001604052806000815250610d17565b80610cf6846113e6565b604051602001610d07929190611b48565b6040516020818303038152906040525b9392505050565b6001600160a01b03918216600090815260056020908152604080832093909416825291909152205460ff1690565b6006546001600160a01b03610100909104163314610d7c5760405162461bcd60e51b81526004016103c190611b13565b6001600160a01b038116610de15760405162461bcd60e51b815260206004820152602660248201527f4f776e61626c653a206e6577206f776e657220697320746865207a65726f206160448201526564647265737360d01b60648201526084016103c1565b610dea816112de565b50565b6001600160a01b038216610e435760405162461bcd60e51b815260206004820181905260248201527f4552433732313a206d696e7420746f20746865207a65726f206164647265737360448201526064016103c1565b6000818152600260205260409020546001600160a01b031615610ea85760405162461bcd60e51b815260206004820152601c60248201527f4552433732313a20746f6b656e20616c7265616479206d696e7465640000000060448201526064016103c1565b6001600160a01b0382166000908152600360205260408120805460019290610ed1908490611b77565b909155505060008181526002602052604080822080546001600160a01b0319166001600160a01b03861690811790915590518392907fddf252ad1be2c89b69c2b068fc378daa952ba7f163c4a11628f55a4df523b3ef908290a45050565b6001600160a01b03811660009081526001830160205260408120541515610d17565b6000610d17836001600160a01b0384166114e4565b600081815260046020526040902080546001600160a01b0319166001600160a01b0384169081179091558190610f9b826108f4565b6001600160a01b03167f8c5be1e5ebec7d5bd14f71427d1e84f3dd0314c0f7b2291e5b200ac8c7c3b92560405160405180910390a45050565b6000818152600260205260408120546001600160a01b031661104d5760405162461bcd60e51b815260206004820152602c60248201527f4552433732313a206f70657261746f7220717565727920666f72206e6f6e657860448201526b34b9ba32b73a103a37b5b2b760a11b60648201526084016103c1565b6000611058836108f4565b9050806001600160a01b0316846001600160a01b031614806110935750836001600160a01b031661108884610610565b6001600160a01b0316145b806110a357506110a38185610d1e565b949350505050565b826001600160a01b03166110be826108f4565b6001600160a01b0316146111265760405162461bcd60e51b815260206004820152602960248201527f4552433732313a207472616e73666572206f6620746f6b656e2074686174206960448201526839903737ba1037bbb760b91b60648201526084016103c1565b6001600160a01b0382166111885760405162461bcd60e51b8152602060048201526024808201527f4552433732313a207472616e7366657220746f20746865207a65726f206164646044820152637265737360e01b60648201526084016103c1565b611193600082610f66565b6001600160a01b03831660009081526003602052604081208054600192906111bc908490611a70565b90915550506001600160a01b03821660009081526003602052604081208054600192906111ea908490611b77565b909155505060008181526002602052604080822080546001600160a01b0319166001600160a01b0386811691821790925591518493918716917fddf252ad1be2c89b69c2b068fc378daa952ba7f163c4a11628f55a4df523b3ef91a4505050565b60065460ff166112945760405162461bcd60e51b815260206004820152601460248201527314185d5cd8589b194e881b9bdd081c185d5cd95960621b60448201526064016103c1565b6006805460ff191690557f5db9ee0a495bf2e6ff9c91a7834c1ba4fdd244a5e8aa4e537bd38aeae4b073aa335b6040516001600160a01b03909116815260200160405180910390a1565b600680546001600160a01b03838116610100818102610100600160a81b031985161790945560405193909204169182907f8be0079c531659141344cd1fd0a4f28419497f9722a3daafe3b4186f6b6457e090600090a35050565b60065460ff161561137e5760405162461bcd60e51b815260206004820152601060248201526f14185d5cd8589b194e881c185d5cd95960821b60448201526064016103c1565b6006805460ff191660011790557f62e78cea01bee320cd4e420270b5ea74000d11b0c9f74754ebdbfc544b05a2586112c13390565b6113be8484846110ab565b6113ca84848484611533565b610c305760405162461bcd60e51b81526004016103c190611b8f565b60608161140a5750506040805180820190915260018152600360fc1b602082015290565b8160005b8115611434578061141e81611be1565b915061142d9050600a83611c12565b915061140e565b60008167ffffffffffffffff81111561144f5761144f61170c565b6040519080825280601f01601f191660200182016040528015611479576020820181803683370190505b5090505b84156110a35761148e600183611a70565b915061149b600a86611c26565b6114a6906030611b77565b60f81b8183815181106114bb576114bb611c3a565b60200101906001600160f81b031916908160001a9053506114dd600a86611c12565b945061147d565b600081815260018301602052604081205461152b57508154600181810184556000848152602080822090930184905584548482528286019093526040902091909155610370565b506000610370565b60006001600160a01b0384163b1561163557604051630a85bd0160e11b81526001600160a01b0385169063150b7a0290611577903390899088908890600401611c50565b602060405180830381600087803b15801561159157600080fd5b505af19250505080156115c1575060408051601f3d908101601f191682019092526115be91810190611c8d565b60015b61161b573d8080156115ef576040519150601f19603f3d011682016040523d82523d6000602084013e6115f4565b606091505b5080516116135760405162461bcd60e51b81526004016103c190611b8f565b805181602001fd5b6001600160e01b031916630a85bd0160e11b1490506110a3565b506001949350505050565b82805461164c90611a87565b90600052602060002090601f01602090048101928261166e57600085556116b4565b82601f1061168757805160ff19168380011785556116b4565b828001600101855582156116b4579182015b828111156116b4578251825591602001919060010190611699565b506116c09291506116c4565b5090565b5b808211156116c057600081556001016116c5565b6001600160e01b031981168114610dea57600080fd5b60006020828403121561170157600080fd5b8135610d17816116d9565b634e487b7160e01b600052604160045260246000fd5b600067ffffffffffffffff8084111561173d5761173d61170c565b604051601f8501601f19908116603f011681019082821181831017156117655761176561170c565b8160405280935085815286868601111561177e57600080fd5b858560208301376000602087830101525050509392505050565b600080604083850312156117ab57600080fd5b823567ffffffffffffffff8111156117c257600080fd5b8301601f810185136117d357600080fd5b6117e285823560208401611722565b95602094909401359450505050565b60005b8381101561180c5781810151838201526020016117f4565b83811115610c305750506000910152565b600081518084526118358160208601602086016117f1565b601f01601f19169290920160200192915050565b602081526000610d17602083018461181d565b60006020828403121561186e57600080fd5b5035919050565b80356001600160a01b038116811461188c57600080fd5b919050565b600080604083850312156118a457600080fd5b6118ad83611875565b946020939093013593505050565b6000806000606084860312156118d057600080fd5b6118d984611875565b92506118e760208501611875565b9150604084013590509250925092565b60006020828403121561190957600080fd5b610d1782611875565b6000806040838503121561192557600080fd5b61192e83611875565b91506020830135801515811461194357600080fd5b809150509250929050565b634e487b7160e01b600052602160045260246000fd5b606081526000611977606083018661181d565b90508360208301526003831061199d57634e487b7160e01b600052602160045260246000fd5b826040830152949350505050565b600080600080608085870312156119c157600080fd5b6119ca85611875565b93506119d860208601611875565b925060408501359150606085013567ffffffffffffffff8111156119fb57600080fd5b8501601f81018713611a0c57600080fd5b611a1b87823560208401611722565b91505092959194509250565b60008060408385031215611a3a57600080fd5b611a4383611875565b9150611a5160208401611875565b90509250929050565b634e487b7160e01b600052601160045260246000fd5b600082821015611a8257611a82611a5a565b500390565b600181811c90821680611a9b57607f821691505b60208210811415611abc57634e487b7160e01b600052602260045260246000fd5b50919050565b60208082526031908201527f4552433732313a207472616e736665722063616c6c6572206973206e6f74206f6040820152701ddb995c881b9bdc88185c1c1c9bdd9959607a1b606082015260800190565b6020808252818101527f4f776e61626c653a2063616c6c6572206973206e6f7420746865206f776e6572604082015260600190565b60008351611b5a8184602088016117f1565b835190830190611b6e8183602088016117f1565b01949350505050565b60008219821115611b8a57611b8a611a5a565b500190565b60208082526032908201527f4552433732313a207472616e7366657220746f206e6f6e20455243373231526560408201527131b2b4bb32b91034b6b83632b6b2b73a32b960711b606082015260800190565b6000600019821415611bf557611bf5611a5a565b5060010190565b634e487b7160e01b600052601260045260246000fd5b600082611c2157611c21611bfc565b500490565b600082611c3557611c35611bfc565b500690565b634e487b7160e01b600052603260045260246000fd5b6001600160a01b0385811682528416602082015260408101839052608060608201819052600090611c839083018461181d565b9695505050505050565b600060208284031215611c9f57600080fd5b8151610d17816116d956fea2646970667358221220e05f0c7d76af3cf29f2cf7251931277f62966021e14f5df60b3baa1ec3faa4ab64736f6c63430008090033",
    "sourcePath": "/Users/marvin/contracts/solidityTestAnswer/SuperHero.sol",
    "compiler": {
        "name": "solc",
        "version": "0.8.9+commit.e5eed63a"
    },
    "functionHashes": {
        "approve(address,uint256)": "095ea7b3",
        "balanceOf(address)": "70a08231",
        "getApproved(uint256)": "081812fc",
        "heroes(uint256)": "a8d4a03b",
        "isApprovedForAll(address,address)": "e985e9c5",
        "mint(string,uint256)": "056b01ce",
        "name()": "06fdde03",
        "owner()": "8da5cb5b",
        "ownerOf(uint256)": "6352211e",
        "pause()": "8456cb59",
        "paused()": "5c975abb",
        "renounceOwnership()": "715018a6",
        "safeTransferFrom(address,address,uint256)": "42842e0e",
        "safeTransferFrom(address,address,uint256,bytes)": "b88d4fde",
        "setApprovalForAll(address,bool)": "a22cb465",
        "setTestToken(address)": "5a3cbc8b",
        "supportsInterface(bytes4)": "01ffc9a7",
        "symbol()": "95d89b41",
        "testToken()": "6895179d",
        "tokenURI(uint256)": "c87b56dd",
        "transferFrom(address,address,uint256)": "23b872dd",
        "transferOwnership(address)": "f2fde38b",
        "unpause()": "3f4ba83a"
    },
    "gasEstimates": {
        "creation": {
            "codeDepositCost": "1478400",
            "executionCost": "infinite",
            "totalCost": "infinite"
        },
        "external": {
            "approve(address,uint256)": "infinite",
            "balanceOf(address)": "2634",
            "getApproved(uint256)": "4782",
            "heroes(uint256)": "infinite",
            "isApprovedForAll(address,address)": "infinite",
            "mint(string,uint256)": "infinite",
            "name()": "infinite",
            "owner()": "2453",
            "ownerOf(uint256)": "2689",
            "pause()": "29853",
            "paused()": "2404",
            "renounceOwnership()": "28217",
            "safeTransferFrom(address,address,uint256)": "infinite",
            "safeTransferFrom(address,address,uint256,bytes)": "infinite",
            "setApprovalForAll(address,bool)": "26650",
            "setTestToken(address)": "26849",
            "supportsInterface(bytes4)": "534",
            "symbol()": "infinite",
            "testToken()": "2360",
            "tokenURI(uint256)": "infinite",
            "transferFrom(address,address,uint256)": "infinite",
            "transferOwnership(address)": "28477",
            "unpause()": "29786"
        }
    }
}